:080000004DC0FECFFDCFFCCF87
:10000800FBCFFACFF9CFF8CFF7CFF6CFF5CFF4CFB4
:10001800F3CFF2CFF1CFF0CFEFCFEECFEDCFECCFE4
:10002800EBCF1027E80364000A000100001000016C
:1000380010000100000074656D706572617475725E
:10004800653A2000430068756D69646974793A20DF
:100058000025205248006572726F720001002D4E13
:10006800414E00494E460000020004003C000E00CC
:10007800E0003E000200EE004C000B00F0004E00D5
:100088000500FB005900060000015E000100380170
:1000980064000000F894EE27ECBBF1E0FBBFEBBF77
:1000A800E5BF8DE0A2E0BB27ED938A95E9F780E0F4
:1000B80092E0A0E6ED930197E9F7E0E7F0E085919B
:1000C8009591009761F0A591B59105901590BF01A4
:1000D800F00105900D920197E1F7FB01F0CFEFE5F4
:1000E800EDBFE2E0EEBFC0EED0E000C0E0E0EABB6A
:1000F800EBBBE7BBE8BBE4BBE5BBE1BBE2BBE3BFF3
:10010800E2BFECBFEFBDEEBDEDBDECBDE7BDE6BDAA
:10011800EBBDEABDE9BDE8BDE2BDE5BDE4BDE3BDBB
:10012800E9BFE5BFE4BFEAB9E0E8E8B9E0E0E0BF6D
:10013800E6B9EDB9E6BFE7E2EA93E0E1EA93A2E0C7
:100148002AD05DD0E5E0F0E0C3D1A4E0B0E05DD115
:10015800AE2FEFEFB0E0FFEFEA17FB07A1F0E52DB8
:10016800BAD1A0E055D0A0EEB0E0BDD1AEEEB0E07F
:1001780087D0E42DB0D1A1E04BD0A0EFB0E0B3D14F
:10018800ABEFB0E002C0A0E0B1E07AD0A4EFB1E0FC
:10019800CBD1D8CFFFCFAA937A80B980A880DD24AD
:1001A800E8E0CE2E68D16624E1E0EA1510F4E8E034
:1001B8006E2ADD2019F0E1E0EA1509F002C0E4E05A
:1001C8006E2AA2E394D1AC2D80D0A8EEB3E0ACD1D6
:1001D80090D18FD1A0E373D088E592E00197F1F731
:1001E800A0E26DD0E62DE0628BD1E4E09E2E35D002
:1001F80006D0E2E08E2EE46083D103D05CC1A1E09A
:1002080001C0A2E030D080E49FE10197F1F70895A2
:10021800AA932897E0E0E883E983E0E4EA83E0E052
:10022800EB83E4E1EC83E0E0ED83E4E5EE83E0E0FA
:10023800EF83A885AA1618F4EA2DE150E887E88527
:10024800F0E0DE01EE0FFF1FAE0FBF1FEC91A98596
:10025800EA0FE06855D12A960895E4E09E2AE92D30
:10026800E8604ED10895AA93E881EA93A0E016D0F9
:100278002DC1AA93E881EA93A1E010D0E1E026C15C
:1002880041D1A881B981EC91E03031F0ED91A8839A
:10029800B983AE2FEEDFF5CF22960895AA9358D1F1
:1002A800EB81E07F1E2FEB81E295E07F0E2FAA8184
:1002B800A12B05D0AA81A02B02D04FD1ADC0AA9303
:1002C800A88103D0A8810DD001C1AA93D9D07A9270
:1002D800A0E0E0D0EC2DA881EA2BAE2FEED0D7D04D
:1002E800F5C0AA93E881E460AE2FEFDF85E08A9538
:1002F800F1F7E881EB7FAE2FE8DF88EC90E001971B
:10030800F1F7E4C0FFD0B981A881109631F0FC81E3
:10031800EB816A8161931197E9F7EB81FC8125965E
:100328000895F0D0259712D100E020E030E0FE01DA
:100338003496CED0E0E0EA93A5E0B0E0E3DFE5D084
:10034800D898A2E1D4D0D89AD09885ED8A95F1F7BB
:10035800C89957C0DED0C89B54C0DBD000E0053038
:1003680098F52197E0E0E88310E0183010F520E0D8
:1003780030E0C89906C0D2D018F0EFEF219642C0FD
:10038800F8CF80EA8A95F1F7C89B07C0E7E0E11B40
:10039800A1E0D4D0A881EA2BE88320E030E0C89B14
:1003A80006C0BCD018F0EFEF21962CC0F8CF1F5F25
:1003B800DCCFE02FF0E0DE011596EA0FFB1FA881E5
:1003C800A08321960F5FCBCFA0D0AC81BB27ED8156
:1003D800F0E0AE0FBF1FEE81F0E0AE0FBF1FEF8160
:1003E800F0E0EA0FFB1FAE2FE885EA1751F4EE8123
:1003F800AB85BC85EC93EC81A985BA85EC93E0E0EC
:1004080001C0EFEFA8D02D9608957CD0EA81FB813A
:100418005FD0AA81BB8185DF2496089573D0A99106
:10042800B991E991F99130962AF4E095F0953196D1
:100438006DE26D93E89480E197E20DD088EE93E049
:100448000AD084E6992707D08AE005D06E2F10D00D
:1004580066276C9308956627E817F90720F06395D7
:10046800E81BF90BC9F7662311F416F00895689490
:10047800605D6D930895E0E1E0B9A89AA99A08959E
:10048800E4EAE6BFE6B7E078E9F3E1B10895E4E924
:10049800E6BF0895AA931A9310E0EA81EE0F1E2F83
:1004A800E9811E2B106413B9E4E8E6BFE6B7E078EB
:1004B800E9F3E1B1188123960895AA93E881E3B995
:1004C800E4E8E6BFE6B7E078E9F3E1B121960895FC
:1004D800FA93EA930895F0E0FBDFA6E0B1E09EDF2F
:1004E800E0E0EA930895CCDEA6E0B1E0C9CEB0E042
:1004F8001BC0A0E3E4DE80E596E40197F1F70895D8
:10050800AE2FB1CEBA93AA930895D09AD89AA4E6FA
:10051800EECF80E491E00197F1F708952F5F3F4F08
:10052800293CE0E03E070895109639F0A89580EA46
:100538009FE00197F1F71197C9F70895EE230E2E62
:10054800EA2F19F0EE0F0A94E9F708953A932A93DF
:100558001A930A9308953B812A8119810881089585
:00000001FF
