:0C0000000C9470000C9400000C940000A4
:10000C000C9400000C9400000C9400000C94000064
:10001C000C9400000C9400000C9400000C94000054
:10002C000C9400000C9400000C9400000C94000044
:10003C000C9400000C9400000C9400000C94000034
:10004C000C9400000C9400001027E80364000A00D4
:10005C000100001000011000010000007777772EDE
:10006C00616E616B6B656E64616C692E636F6D00A4
:10007C0074656D70657261747572653A2000430029
:10008C0068756D69646974793A20002520524800BE
:10009C006572726F720001002D4E414E00494E4642
:1000AC0000000200040066001400600168000E00ED
:1000BC0074017C00020082018A000B0084018C0018
:1000CC0005008F019700060094019C000100CC01F3
:1000DC00A2000000F894EE27ECBBF1E0FBBFEBBFF5
:1000EC00E5BFF8E1F1BDE1BD8DE0A2E0BB27ED93EA
:1000FC008A95E9F780E094E0A0E6ED930197E9F7A3
:10010C00EEEAF0E085919591009761F0A591B5919B
:10011C0005901590BF01F00105900D920197E1F744
:10012C00FB01F0CFEFE5EDBFE4E0EEBFC0E6D1E0C0
:10013C000C94A000E0E0EBBBEABBE8BBE7BBE5BB83
:10014C00E4BBE2BBE1BBE3BFE2BFECBFEFBDEEBD86
:10015C00EDBDECBDE7BDE6BDEBBDEABDE9BDE8BD5F
:10016C00E2BDE5BDE4BDE3BDE5BFE4BFE9BFEAB96F
:10017C00E0E8E8B9E0E0E0BFE6B9EDB9E6BFE7E2F8
:10018C00EA93E4E1EA93A4E038D074D0E0E0EA9397
:10019C00A0E079D0A0E6B1E0B2D0E5E0F0E0FA93CF
:1001AC00EA93A4E0B0E00E946E02AE2FEFEFB0E055
:1001BC00FFEFEA17FB07C1F0E52D0E94D402A1E086
:1001CC0062D0A4E7B1E00E94DE02A2E8B1E097D0D1
:1001DC00E42D0E94D402A2E056D0A4E8B1E00E9423
:1001EC00DE02AFE8B1E002C0A4E9B1E088D0A4EF30
:1001FC00B1E00E94F202CACFFFCFAA937A80B980F5
:10020C00A880DD24E8E0CE2E0E94A7026624E1E05F
:10021C00EA1510F4E8E06E2ADD2019F0E1E0EA15A9
:10022C0009F002C0E4E06E2AA2E3B0E00E94F20200
:10023C00AC2D8FD0A8EEB3E00E94F2020E94E40233
:10024C000E94E402A0E37ED088E592E00197F1F7EA
:10025C00A0E278D0E62DE062AE2F42D0E4E09E2EF4
:10026C0038D008D0E2E08E2EE460AE2F39D004D026
:10027C000C94C702A1E001C0A2E032D080E49FE15F
:10028C000197F1F70895AA932897E0E0E883E983B2
:10029C00E0E4EA83E0E0EB83E4E1EC83E0E0ED838F
:1002AC00E4E5EE83E0E0EF83A885AA1618F4EA2DC6
:1002BC00E150E887E885F0E0DE01EE0FFF1FAE0F9E
:1002CC00BF1FEC91A985EA0FE068AE2F09D02A96E2
:1002DC000895E4E09E2AE92DE860AE2F01D0089540
:1002EC00AA93E881EA93A0E019D00C94D202AA93C5
:1002FC00E881EA93A1E012D0E1E00C94D202BA9327
:10030C00AA93A881B981EC91E03031F0ED91A883EA
:10031C00B983AE2FECDFF5CF22960895AA931A93EA
:10032C000A93EB81E07F1E2FEB81E295E07F0E2F8D
:10033C00AA81A12B07D0AA81A02B04D019810881F6
:10034C000C947702AA93A88104D0A88113D00C94A2
:10035C00D202AA930E94AC027A92A0E00E94B6024A
:10036C00EC2DA881EA2BAE2F0E94C9020E94B30289
:10037C000C94D202AA93E881E460AE2FEADF85E008
:10038C008A95F1F7E881EB7FAE2FE3DF88EC90E004
:10039C000197F1F70C94D202BA93AA93B981A88170
:1003AC00109631F0FC81EB816A8161931197E9F72A
:1003BC00EB81FC8125960895BA93AA9325970E9408
:1003CC00040300E020E030E0FE013496FA93EA9357
:1003DC00E0E0EA93A5E0B0E00E94D2010E94EC02BA
:1003EC00D898A2E1B0E00E94F202D89AD09885ED9C
:1003FC008A95F1F7C89967C080E491E00197F1F70D
:10040C00C89B61C080E491E00197F1F700E00530F2
:10041C00E0F52197E0E0E88310E0183058F520E093
:10042C0030E0C8990AC02F5F3F4F293CE0E03E07FF
:10043C0018F0EFEF219648C0F4CF80EA8A95F1F7D7
:10044C00C89B08C0E7E0E11BA1E00E94FC02A88168
:10045C00EA2BE88320E030E0C89B0AC02F5F3F4FB7
:10046C00293CE0E03E0718F0EFEF21962DC0F4CFC9
:10047C001F5FD3CFE02FF0E0DE011596EA0FFB1FD4
:10048C00A881A08321960F5FC2CF0E94EC02AC81A1
:10049C00BB27ED81F0E0AE0FBF1FEE81F0E0AE0F99
:1004AC00BF1FEF81F0E0EA0FFB1FAE2FE885EA17C4
:1004BC0051F4EE81AB85BC85EC93EC81A985BA85B2
:1004CC00EC93E0E001C0EFEF0E9409032D96089534
:1004DC00BA93AA93EA81FB81FA93EA93AA81BB812E
:1004EC006BDF24960895BA93AA93A991B991E991D7
:1004FC00F99130962AF4E095F09531966DE26D9372
:10050C00E89480E197E20DD088EE93E00AD084E67F
:10051C00992707D08AE005D06E2F10D066276C93F0
:10052C0008956627E817F90720F06395E81BF90B87
:10053C00C9F7662311F416F008956894605D6D9305
:10054C000895E0E1E0B9A89AA99A0895E4EAE6BF13
:10055C00E6B7E078E9F3E1B10895E4E9E6BF089580
:10056C00AA931A9310E0EA81EE0F1E2FE9811E2B3D
:10057C00106413B9E4E8E6BFE6B7E078E9F3E1B15B
:10058C00188123960895AA93E881E3B9E4E8E6BFBD
:10059C00E6B7E078E9F3E1B121960895F0E0FA933B
:1005AC00EA93AAE9B1E00E947902E0E0EA930895A7
:1005BC000E948501AAE9B1E00C948501A0E30E9498
:1005CC00A80180E596E40197F1F70895D09AD89A9E
:1005DC00A4E6B0E00C94F202109639F0A89580EAEB
:1005EC009FE00197F1F71197C9F70895EE230E2EAE
:1005FC00EA2F19F0EE0F0A94E9F708953A932A932B
:10060C001A930A9308953B812A81198108810895D0
:00000001FF
